:020000040800F2
:1000000088540020450100081D3100081F310008F8
:1000100023310008273100082B31000800000000C0
:100020000000000000000000000000002F31000868
:10003000313100080000000033310008353100087C
:100040005F0100085F0100085F0100083D31000802
:100050005F0100085F0100085F0100085F01000800
:100060005F0100085F0100085F0100085F010008F0
:100070005F0100085F0100085F0100085F010008E0
:100080005F0100085F0100085F0100085F010008D0
:100090005F0100085F0100085F0100085F010008C0
:1000A0005F0100085F0100085F0100085F010008B0
:1000B0005F0100085F0100085F0100085F010008A0
:1000C0005F0100085F0100085F0100085F01000890
:1000D0005F0100085F0100085F0100085F01000880
:1000E0005F0100085F0100085F0100085F01000870
:1000F0005F0100085F0100085F0100085F01000860
:100100005F0100085F0100085F0100085F0100084F
:100110005F0100085F010008593100085F01000815
:100120005F0100085F0100085F0100085F0100082F
:10013000DFF80CD00AF0F0FE00480047DD2F000881
:10014000885400200648804706480047FEE7FEE73F
:10015000FEE7FEE7FEE7FEE7FEE7FEE7FEE7FEE777
:1001600047020008310100080CB500200190009002
:100170006C48006840F480306A49086000BF6948F4
:10018000006800F4003000900198401C0190009835
:1001900018B90198B0F5A06FF1D16248006800F479
:1001A000003010B10120009001E000200090009884
:1001B000012843D15C48006840F010005A490860AB
:1001C0000846006820F0030008600846006840F018
:1001D0000200086053484068524948600846406839
:1001E00048600846406840F48060486008464068BF
:1001F00020F47C1048600846406840F4E8104860ED
:100200000846006840F08070086000BF45480068FC
:1002100000F000700028F9D04248406820F0030048
:10022000404948600846406840F00200486000BF0E
:100230003C48406800F00C000828F9D10CBD10B50E
:10024000FFF792FF10BD10B53648006840F001007E
:1002500034490860084640683449084031494860DC
:1002600008460068324908402E4908600846006880
:1002700020F4802008600846406820F4FE004860B2
:100280004FF41F008860FFF7DAFF4FF00060294944
:10029000086010BD10B5002100200022214B5B68D2
:1002A00003F00C0121B1042906D0082928D107E068
:1002B000214B224C236027E01F4B204C236023E07E
:1002C000184B5B6803F47010164B5B6803F48032C4
:1002D000022303EB904022B9194B4343174C236090
:1002E0000DE0104B5B6803F4003323B1144B434320
:1002F000124C236003E0104B4343104C236003E097
:100300000D4B0E4C236000BF00BF064B5B68C3F370
:1003100003130C4CE15C094B1B68CB40074C23607A
:1003200010BD000000100240002002400000FFF855
:10033000FFFFF6FE08ED00E000127A00000000204A
:1003400000093D000400002031490143314A116099
:10035000704770B5002100230F22C47804B32D4CE0
:10036000246804F4E064C4F5E064210AC1F10403E4
:10037000CA40447804FA03F1847814402143090107
:10038000254C0678A155047804F01F050124AC40E3
:1003900005786D11AD0005F1E025C5F8004109E0D3
:1003A000047804F01F050124AC401C4D067876113A
:1003B00045F8264070BD1A4A0A400243154B1B1FE0
:1003C0001A60704739B1134A121D12680243114B6B
:1003D0001B1D1A6006E00F4A121D126882430D4B66
:1003E0001B1D1A607047042808D14FF0E0210969ED
:1003F00041F004014FF0E022116107E04FF0E021ED
:10040000096921F004014FF0E022116170470000FA
:100410000000FA050CED00E000E400E080E100E0FF
:1004200080FFFF1F10B50446FA48844208D101211D
:10043000401501F04DFA0021601501F049FA17E06E
:10044000F548844208D10121001501F041FA00214C
:10045000201501F03DFA0BE0F048844208D101215B
:10046000C80301F035FA00214FF4004001F030FAE2
:1004700010BD30B50246002000235068E84C2040F3
:100480000D790C6844EA0524204350609068E54CDF
:100490002040D1E902542C434D7944EA45042043DD
:1004A0009060D06A20F470000C7C641EE4B2234398
:1004B00040EA0350D06230BD0021016001714171FA
:1004C0008160C16001210174704721B1826842F0EE
:1004D0000102826003E0826822F0010282607047BC
:1004E00021B1826842F48072826003E0826822F463
:1004F00080728260704710B50023CBB21AB1446895
:100500001C43446002E044689C43446010BD816821
:1005100041F0080181607047014600208A6802F0BE
:1005200008020AB1012000E000207047816841F014
:10053000040181607047014600208A6802F00402CD
:100540000AB1012000E00020704721B1826842F426
:10055000A002826003E0826822F4A00282607047F9
:10056000014600208A6802F480020AB1012000E0FE
:100570000020704710B50A4600210023416821F48D
:100580006041531E41EA4331416010BD21B14268D0
:1005900042F40062426003E0426822F4006242607A
:1005A0007047F0B504460D4600200021092D11DDED
:1005B000E068A5F10A0606EB4607072606FA07F1EA
:1005C0008843A5F10A0606EB460603FA06F108433E
:1005D000E0600CE0206905EB4507072606FA07F105
:1005E000884305EB450603FA06F108432061072A14
:1005F0000FDA606B561E06EB86071F2606FA07F118
:100600008843561E06EB860605FA06F1084360632A
:1006100022E00D2A0FDA206BD61F06EB86071F2675
:1006200006FA07F18843D61F06EB860605FA06F19F
:100630000843206310E0E06AA2F10D0606EB86078E
:100640001F2606FA07F18843A2F10D0606EB86067F
:1006500005FA06F10843E062F0BD21B1826842F478
:100660008012826003E0826822F480128260704708
:100670000146C86C80B2704766484C3000687047CD
:1006800021B1426842F48062426003E0426822F491
:1006900080624260704721B1426842F480524260F9
:1006A00003E0426822F48052426070470A4600210B
:1006B000816821F4E04111438160704721B1826873
:1006C00042F40042826003E0826822F400428260C9
:1006D000704721B1826842F40212826003E08268AE
:1006E00022F4021282607047014600208A6802F4F8
:1006F00000120AB1012000E000207047F0B5044666
:100700001546002000220026092911DDE068A1F12C
:100710000A0707EB470C072707FA0CF29043A1F1F1
:100720000A0707EB470703FA07F21043E0600CE003
:10073000206901EB410C072707FA0CF2904301EB0B
:10074000410703FA07F210432061A06BC0F3015682
:10075000EF1C06F1010CA7EB0C0707EB870C1F271A
:1007600007FA0CF29043EF1C06F1010CA7EB0C0703
:1007700007EB870701FA07F21043A063F0BD10B53D
:100780000A4600210023816B21F44011531E41EAE7
:100790000351816310BD08B5002300930090009BB6
:1007A0000B440093009B1A6008BD08B50246002068
:1007B0000090009201F12800009B184400900098DE
:1007C000006880B208BD0A4600214168164B1940F6
:1007D0001143416070474162826270470A460021BE
:1007E000416821F01F0111434160704740B1094940
:1007F0000831096841F40001064A0832116007E037
:1008000004490831096821F40001024A08321160E4
:10081000704700000024014000280140003C0140D6
:10082000FFFEF0FFFDF7F1FFFFFD3FFF0246002056
:1008300013680B400BB1012000E000207047CA4351
:100840000260704770B502460020002300240B129E
:100850005568CEB205EA060415681D4015B10CB105
:10086000012000E0002070BD00220A12D343036083
:100870007047000010B5012001F044F8002001F09D
:1008800041F810BD2A49086070472949091F0860CE
:100890007047274984310860704701460020254A87
:1008A00010884FF67F4210400843224A108070475C
:1008B000014600201F4A10884FF6807210400843FE
:1008C0001C4A1080704708B500220092194A2C3A41
:1008D0000092009A02440092009A116008BD08B587
:1008E00001460020009013482C38009000980844DE
:1008F00000900098008808BD0D489C300068C0B288
:1009000070470C480830008840F001000949083160
:10091000088070470648A0300068C0B2704705489C
:100920000830008840F00200024908310880704712
:1009300004860D422C6C004001684FF6FE72114097
:1009400001600021016041608160C1608D49884281
:1009500008D18C490839496841F00F01894A083AA1
:1009600051608AE087491431884208D185490839A5
:10097000496841F0F001834A083A51607DE08149BD
:100980002831884208D17F490839496841F47061AB
:100990007C4A083A516070E07A493C31884208D17B
:1009A00078490839496841F47041764A083A5160FB
:1009B00063E074495031884208D172490839496866
:1009C00041F470216F4A083A516056E06D49643134
:1009D000884208D16B490839496841F47001694A75
:1009E000083A516049E067497831884208D1654941
:1009F0000839496841F07061624A083A51603CE048
:100A00006149884206D1011F096841F00F01021FA8
:100A1000116032E05C491431884208D15A49091FFB
:100A2000096841F0F001584A121F116025E056494B
:100A30002831884208D15449091F096841F470617E
:100A4000514A121F116018E04F493C31884208D1C9
:100A50004D49091F096841F470414B4A121F11604A
:100A60000BE049495031884207D14749091F0968BD
:100A700041F47021444A121F1160704710B50022E2
:100A8000026847F6F0739A430C6A8B6823430C693B
:100A900023434C6923438C692343CC6923434C6A29
:100AA00023438C6A23431A430260CB6843600B687C
:100AB00083604B68C36010BD0021016041608160AC
:100AC000C160016141618161C16101624162816214
:100AD000704721B1026842F00102026004E002683E
:100AE0004FF6FE731A40026070471AB103680B4359
:100AF000036002E003688B43036070474160704706
:100B00000146486880B2704701460020002201F08B
:100B100080531BB11C4B083B1A6802E0194B083B81
:100B20001A6802EA01030BB1012000E000207047BF
:100B300000F0805119B11449091F086002E0114901
:100B400008394860704701460020002201F08053B8
:100B50001BB10D4B083B1A6802E00A4B083B1A68B0
:100B600002EA01030BB1012000E00020704700F011
:100B7000805119B10449091F086002E00149083990
:100B800048607047080002400804024030B943F250
:100B9000DB028100A1F1C0410A6005E043F2D2020C
:100BA0008100A1F1C0410A606FF07042411C8900D0
:100BB000A1F1C0410A608100A1F1C041C1F8042146
:100BC000704710280AD118214FF0204211664021A9
:100BD00051664FF0FC319166D16610E01821F74A5A
:100BE000116040214FF02042C2F884104FF0FC31D8
:100BF000F24A083211604FF02042C2F88C10704760
:100C00001820EE492031086000200906C1F8A40030
:100C10004FF0FC30E94928310860091D0860091DC2
:100C200008607047D0E901121143C268114302699C
:100C300011434269114382691143C2691143026A37
:100C40001143426A1143826A1143C26A1143026B23
:100C5000114302689200A2F1C04211608168082924
:100C60000BD101688900A1F1C041096841F040023F
:100C700001688900A1F1C0410A60416B0968426BBB
:100C8000526841EA0211426B926841EA0221426BCA
:100C9000928941EA0241426B128A41EA0251426B57
:100CA000127D41EA0261426B926911430268521C53
:100CB0009200A2F1C0421160C16AB1F5804F1BD110
:100CC000816B0968826B526841EA0211826B9268FB
:100CD00041EA0221826B128A41EA0251826B127D43
:100CE00041EA0261826B9269114302689200A2F1AB
:100CF000C042C2F8041107E06FF070420168890039
:100D0000A1F1C041C1F80421704730B50021002293
:100D10000023446844F0080485682C43C5682C43CC
:100D200005692C43456944EA4524856944EA45310F
:100D3000C4692468C5696D6844EA0524C5692D89BC
:100D400044EA0544C5692D7B44EA0562046A2468C7
:100D5000056A6D6844EA0524056A2D8944EA05445C
:100D6000056A2D7B44EA05630468102C05D14FF019
:100D700020442166A266E36608E0904C21604FF0B3
:100D80002044C4F888208D4C0C34236030BD0168A9
:100D900041F01001426841EA4221826841EA423151
:100DA000864A20321160C1680968C268526841EA07
:100DB0000221C268128941EA0241C268127B41EAFB
:100DC00002617E4A2832116001690968026952682D
:100DD00041EA02210269128941EA02410269127B59
:100DE00041EA0261754A2C32116041690968426921
:100DF000526841EA02214269128941EA024142698C
:100E0000127B41EA02614FF02042C2F8B0107047F5
:100E1000002101600221416000218160C160016107
:100E200041618161C16101624FF4805141624900B9
:100E300081620021C16201630F21426B1160426B2C
:100E40005160FF21426B91600F21426BD160426B78
:100E50001161426B51610021426B91610F21826BE4
:100E60001160826B5160FF21826B91600F21826B58
:100E7000D160826B1161826B51610021826B916143
:100E8000704710210160002141608160C1600161F3
:100E900041618161FC21C2691160C2695160C2690E
:100EA0009160C269D160026A1160026A5160026A8F
:100EB0009160026AD16070470021016041608160E9
:100EC000FC21C2681160C2685160C2689160C2684A
:100ED000D160026911600269516002699160026922
:100EE000D160426911604269516042699160426912
:100EF000D160704751B18200A2F1C042126842F045
:100F000001038200A2F1C042136009E08200A2F155
:100F1000C04212682A4B1A408300A3F1C0431A60F2
:100F2000704799B1102808D14FF02042126E42F05C
:100F300004024FF020431A661DE0204A126842F076
:100F400004024FF02043C3F8802014E0102809D198
:100F50004FF02042126E1A4BDB1E1A404FF0204316
:100F60001A6608E0154A1268154BDB1E1A404FF04E
:100F70002043C3F88020704748B1104920310968E8
:100F800041F004014FF02042C2F8A01009E00B49E3
:100F9000203109680A4AD21E11404FF02042C2F89F
:100FA000A0107047B9B110280CD14FF02042126E3A
:100FB00042F040024FF020431A661FE0800000A07C
:100FC000FEFF0F00724A126842F040024FF02043C9
:100FD000C3F8802012E0102808D14FF02042126E92
:100FE0006C4B1A404FF020431A6607E0684A1268BB
:100FF000684B1A404FF02043C3F8802070470146E9
:101000000020102903D14FF02042506F02E0604AC7
:1010100014321068704710B5F2B1102807D14FF0A4
:1010200020435B6E0B434FF02044636632E0B0F523
:10103000807F08D1564B1B1D1B680B434FF020448B
:10104000C4F8843026E0524B24331B680B434FF026
:101050002044C4F8A4301DE0102807D14FF02043ED
:101060005B6E8B434FF02044636613E0B0F5807FE6
:1010700008D1474B1B1D1B688B434FF02044C4F81D
:10108000843007E0424B24331B688B434FF02044ED
:10109000C4F8A43010BD10B5024600200023102A69
:1010A00003D14FF02044636E09E0B2F5807F03D195
:1010B000374C241D236802E0354C2434236803EAAE
:1010C00001040CB1012000E0002010BD102807D160
:1010D0004FF02042526E8A434FF020435A6613E08D
:1010E000B0F5807F08D12A4A121D12688A434FF05A
:1010F0002043C3F8842007E0254A243212688A433B
:101100004FF02043C3F8A420704770B5024600207A
:10111000002300240025102A03D14FF02046736ECF
:1011200009E0B2F5807F03D1194E361D336802E025
:10113000174E2436336803EA010403EAD10514B1DB
:101140000DB1012000E0002070BD102808D14FF043
:101150002042526E22EAD1024FF020435A6615E037
:10116000B0F5807F09D10A4A121D126822EAD10225
:101170004FF02043C3F8842008E0054A2432126867
:1011800022EAD1024FF02043C3F8A42070470000A8
:10119000800000A0BFFF0F0010B50446CC48844279
:1011A00008D10121042000F093FB0021042000F06D
:1011B0008FFB46E0C748844208D10121082000F097
:1011C00087FB0021082000F083FB3AE0C2488442FC
:1011D00008D10121102000F07BFB0021102000F03D
:1011E00077FB2EE0BD48844208D10121202000F089
:1011F0006FFB0021202000F06BFB22E0B848844206
:1012000008D10121402000F063FB0021402000F0C4
:101210005FFB16E0B348844208D10121802000F032
:1012200057FB0021802000F053FB0AE0AE488442C7
:1012300007D10121801500F04BFB0021A01500F023
:1012400047FB10BD10B50121084600F041FB00210D
:10125000012000F03DFB10BD2DE9F04102460025C4
:101260000026002000230024002791F803C00CF082
:101270000F0591F803C00CF0100CBCF1000F03D067
:1012800091F802C04CEA050591F800C0BCF1000FCE
:1012900031D0146800202BE04FF0010C0CFA00F361
:1012A000B1F800C00CEA03069E4220D183004FF043
:1012B0000F0C0CFA03F7BC4305FA03FC4CEA0404D8
:1012C00091F803C0BCF1280F06D14FF0010C0CFAC5
:1012D00000FCC2F814C00AE091F803C0BCF1480F4A
:1012E00005D14FF0010C0CFA00FCC2F810C0401CF4
:1012F0000828D1D31460B1F800C0BCF1FF0F34DD71
:10130000546800202EE000F1080C4FF0010808FAA4
:101310000CF3B1F800C00CEA03069E4221D1830011
:101320004FF00F0C0CFA03F7BC4305FA03FC4CEA30
:10133000040491F803C0BCF1280F05D100F1080C9A
:1013400008FA0CF8C2F8148091F803C0BCF1480FF9
:1013500007D100F1080C4FF0010808FA0CF8C2F8A8
:101360001080401C0828CED35460BDE8F0814FF6B1
:10137000FF710180022181700421C1707047024613
:10138000002093680B400BB1012000E00020704763
:101390000146886880B2704702460020D3680B403F
:1013A0000BB1012000E0002070470146C86880B200
:1013B000704701617047416170470AB1016100E007
:1013C00041617047C16070474FF480320A438261C7
:1013D0008161826182698269704702460020434BC5
:1013E00018684FF68073184040EA021008433F4BDC
:1013F000186070473E49C8617047F0B50A4600233F
:1014000000240021002500F00046B6F1004F02D173
:10141000364EF16901E0354E7168C0F3034583B281
:1014200000F44016B6F5401F08D121F070612F4E30
:10143000766826F070662D4F7E6012E000F480160C
:10144000B6F5801F06D1032606FA05F4A14341F044
:10145000706106E0460D360103FA06F6B14341F02D
:10146000706122B1460D360103FA06F6314300F0F1
:101470000046B6F1004F02D11C4EF16101E01B4E57
:101480007160F0BD30B500228B071C0F0F2303FAEB
:1014900004F2164B08338C1053F824309343134C4A
:1014A00008348D1044F8253023468C1053F824302E
:1014B0008C07240F00FA04F423430C4C08348D10DD
:1014C00044F8253030BD0A49DC310860704700001F
:1014D00000080140000C01400010014000140140D0
:1014E00000180140001C01400020014000000140A4
:1014F0000000204210B50121080700F0F6F9002194
:101500004FF0805000F0F1F910BD2A490862704791
:1015100028490861704701460020274A106820F0DA
:10152000E0000843106070472249A031086070470E
:1015300010B502460020204B186820F0030010432D
:1015400018601E4B1B6843F004031C4C23600129E8
:1015500001D130BF00E020BF184B1B6823F004030B
:10156000164C236010BD1448006840F00400124976
:1015700008600846006840F0020008600F480068F4
:1015800040F004000D49086000BF00BF30BF704745
:1015900001460020084A52680A400AB1012000E0D2
:1015A000002070470449096841EA8001024A11603D
:1015B0007047000000000E420070004010ED00E097
:1015C000DF48006840F00100DD49086008464068D7
:1015D000DC490840DA49486008460068DA490840B2
:1015E000D74908600846006820F480200860084653
:1015F000406820F4FE0048604FF41F008860704788
:10160000CF49096821F48031CD4A1160114609683B
:1016100021F480211160B0F5803F03D0B0F5802F18
:101620000ED106E0C649096841F48031C44A116010
:1016300007E0C349096841F4A021C14A116000E0F4
:1016400000BF00BF704710B50146002200230020F4
:101650004A11012A02D1BA4C236806E0022A02D1BB
:10166000B74C236A01E0B64C636A01F01F02012403
:1016700094401C400CB1012000E0002010BD38B5A2
:10168000002000900024002500BF3120FFF7DBFF81
:1016900005460098401C00900098B0F5A06F01D05E
:1016A000002DF2D03120FFF7CEFF08B1012400E079
:1016B0000024204638BD01460020A14A106820F0D1
:1016C000F80040EAC10010607047A0490860704708
:1016D000024600209A4B586820F47C1042EA01032D
:1016E0001843974B58607047984908667047014601
:1016F0000020934A506820F0030008435060704770
:101700008F48406800F00C007047014600208C4A6A
:10171000506820F0F00008435060704701460020F8
:10172000874A506820F4E0600843506070470146E3
:101730000020834A506820F4605040EAC1005060A5
:10174000704729B17E4A527A02437D4B5A7204E0B7
:101750007B4A527A82437A4B5A7270477B49D8311E
:101760000860704701460020754A506820F44040E8
:101770000843506070470021714A20321170704A4E
:1017800082F82010012802D004280AD104E00121A7
:101790006B4A2032117005E00521694A2032117030
:1017A00000E000BF00BF70476949086070476449A6
:1017B000096A0143624A1162704765494439086009
:1017C000704730B500210022002400235C4D6D6875
:1017D00005F00C0121B1042905D0082923D105E029
:1017E0005C4D056022E05B4D05601FE0544D6D6867
:1017F00005F47012524D6D6805F48034022505EB36
:1018000092421CB9544D554305600BE04C4D6D6838
:1018100005F400351DB1504D5543056002E04D4DB6
:101820005543056002E04B4D056000BF00BF444DCD
:101830006D6805F0F0010909484D6B5C0568DD40F5
:1018400045603F4D6D6805F4E061090A434D6B5CEE
:101850004568DD4085603A4D6D6805F46051C90A00
:101860003E4D6B5C4568DD40C560354D6D6805F4E7
:101870004041890B3A4D6B5CC568B5FBF3F50561DA
:1018800030BD29B12E4A526902432D4B5A6104E002
:101890002B4A526982432A4B5A61704729B1284A20
:1018A00092690243264B9A6104E0254A9269824379
:1018B000234B9A61704729B1214AD2690243204BD8
:1018C000DA6104E01E4AD26982431D4BDA61704737
:1018D00029B11B4AD2680243194BDA6004E0184A66
:1018E000D2688243164BDA60704729B1144A1269F4
:1018F0000243134B1A6104E0114A12698243104BF0
:101900001A61704712494039086070470F49C8642E
:1019100070470B49C87170470948406A40F08070B1
:1019200007494862704701460020054A92680A400C
:101930000AB1012000E00020704701498872704719
:10194000001002400000FFF8FFFFF6FE00004242D8
:101950008004424200127A0000093D001400002079
:101960002400002029B1504A128802434E4B1A80AD
:1019700004E04D4A128882434B4B1A8070474A4814
:10198000001D008840F010004749091D088070477D
:101990004548001D00884FF6EF7108404249091D77
:1019A00008807047002140481C300188001F0088D3
:1019B00041EA0040704700B50246FFF7E0FF100C17
:1019C000394918310880091D0A80FFF7E1FF00BD81
:1019D00000B50246FFF7D3FFC2F303403249083196
:1019E0000880091D0A80FFF7D3FF00BD00B502463D
:1019F000FFF7C5FF100C2C4920310880091D0A8013
:101A0000FFF7C6FF00BD00202749103109880907EC
:101A1000080B2549143109880843704700BF224844
:101A2000001D008800F020000028F8D070471E48F4
:101A3000001D00884FF6F77108401B49091D0880FA
:101A400000BF1948001D008800F008000028F8D0E9
:101A5000704701460020144A121D12880A400AB13C
:101A6000012000E0002070470F49091D09888143CB
:101A70000D4A121D11807047014600200A4A121DAE
:101A800012880A40D0B2084A12880A4012B108B13E
:101A9000012000E0002070470349091D09888143A7
:101AA000014A121D118070470028004010B50446FD
:101AB000BE48844208D101218014FFF709FF0021AC
:101AC000A014FFF705FF16E0B948844208D10121B0
:101AD0000014FFF70AFF00212014FFF706FF0AE0B9
:101AE000B448844207D10121C013FFF7FEFE002154
:101AF000E013FFF7FAFE10BD10B50022028802F4D1
:101B000041520B884C8823438C882343CC88234341
:101B10000C8923434C8923438C892343CC89234359
:101B20001A430280838B4FF2FF74234083830B8A16
:101B3000038210BD2DE9F04F85B005460C464FF0ED
:101B4000000902274FF000084FF0010B0026B246B3
:101B5000A88B4FF240010840A88302202884B5F8E2
:101B60001C90A068022801D100BF38E0A08810B9FD
:101B70004FF0010B01E04FF0020B8D48854200D180
:101B800000E000BF6846FFF71CFEDDF800A0E0881B
:101B9000B0F5007F0AD14FEA1A2000EB8000400028
:101BA000A168B0FBF1F0401D86B20BE04FEA4B108C
:101BB000BAFBF0F000EB80004000A168B0FBF1F050
:101BC000401D86B20A20B6FBF0F606F00108A6EB2F
:101BD0000800C0F34F074FF6FF7000EA0828022FF5
:101BE00001DBFF2F02DD02274FF00008E08840EA0A
:101BF000080038432884A088A189084361880843E5
:101C00002188084340F4006040EA0909A5F81C90C7
:101C100005B0BDE8F08F0021018041808180C18046
:101C2000018141818181C1810721018270470021A9
:101C3000018041808180C1800221816000218181F9
:101C4000704721B1028842F04002028004E002881D
:101C50004FF6BF731A400280704721B1828B42F465
:101C60008062828304E0828B4FF6FF331A408283C6
:101C7000704730B5002400230C110125A540ABB2FC
:101C80001AB185881D43858002E085889D43858043
:101C900030BD1AB183880B43838002E083888B4375
:101CA00083807047818170470146888970474FF66D
:101CB000FF62914204D0028842F48072028004E004
:101CC00002884FF6FF631A400280704721B1828874
:101CD00042F00402828004E082884FF6FB731A40CF
:101CE0008280704702884FF2FF731A400280028898
:101CF0000A4302807047018841F480510180704797
:101D000021B1028842F40052028004E002884DF6BC
:101D1000FF731A400280704702460020012901D05B
:101D2000108B00E0908A70470146088A7047B1F531
:101D3000804F04D1028842F48042028004E002888D
:101D40004BF6FF731A400280704702460020138949
:101D50000B400BB1012000E000207047CA43028114
:101D60007047F0B50246002000240023002501F052
:101D70000F070126BE40B4B20B1101269E40B3B23C
:101D8000968806EA03051689264016B10DB1012092
:101D900000E00020F0BD10B5002201F00F04012387
:101DA000A3409AB2D343038110BD0000003001402C
:101DB00000380040003C004010B50446FE48844214
:101DC00008D10121C014FFF783FD0021E014FFF7C3
:101DD0007FFDC4E0B4F1804F08D101210846FFF730
:101DE00084FD00210120FFF780FDB8E0F348844224
:101DF00008D101210220FFF778FD00210220FFF722
:101E000074FDACE0EE48844208D101210420FFF7C4
:101E10006CFD00210420FFF768FDA0E0E948844242
:101E200008D101210820FFF760FD00210820FFF7FD
:101E30005CFD94E0E448844208D101211020FFF7C2
:101E400054FD00211020FFF750FD88E0DF48844258
:101E500008D101212020FFF748FD00212020FFF7B5
:101E600044FD7CE0DA48844208D101214014FFF7A8
:101E70002FFD00216014FFF72BFD70E0D548844250
:101E800009D10121C804FFF723FD00214FF40020F0
:101E9000FFF71EFD63E0D048844209D10121080507
:101EA000FFF716FD00214FF48010FFF711FD56E0FB
:101EB000CA48844209D101214805FFF709FD0021E4
:101EC0004FF40010FFF704FD49E0C548844208D1F3
:101ED00001214020FFF709FD00214020FFF705FD0B
:101EE0003DE0C048844208D101218020FFF7FDFC7D
:101EF00000218020FFF7F9FC31E0BB48844208D183
:101F000001218015FFF7F1FC0021A015FFF7EDFC82
:101F100025E0B648844209D101210804FFF7D8FC26
:101F200000214FF48030FFF7D3FC18E0B048844222
:101F300009D101214804FFF7CBFC00214FF4003008
:101F4000FFF7C6FC0BE0AB48844208D101218804AE
:101F5000FFF7BEFC00214FF48020FFF7B9FC10BD55
:101F600000220288944B98420ED0994B98420BD095
:101F7000B0F1804F08D0914B984205D0904B9842D9
:101F800002D0904B984204D14FF68F731A404B8881
:101F90001A438D4B984207D08C4B984204D04FF691
:101FA000FF431A40CB881A4302808B8883850B88B5
:101FB0000385814B98420BD0854B984208D08B4BC0
:101FC000984205D08A4B984202D08A4B984201D160
:101FD0000B7A038601238382704770B500240022A8
:101FE0000023058C4FF6FE7635400584028C8388ED
:101FF000048B4FF68F752C40B51E2C400D882C435A
:10200000751E2A400D892A434D882A436A4DA842ED
:102010000BD06F4DA84208D0744DA84205D0744D26
:10202000A84202D0734DA84213D14FF6F7752A404B
:102030004D892A434FF6FB752A408D882A434FF677
:10204000FF652B404FF6FF552B408D892B43CD89E3
:102050002B4383800483CD888586028470BD70B550
:10206000002400220023058C4FF6EF7635400584CE
:10207000028C8388048B48F6FF752C404FF6FF4591
:102080002C400D884FF6FF7606EA05252C434FF6C7
:10209000DF752A400D8906EA05152A434D8806EAB0
:1020A00005152A43444DA84202D0494DA8421DD1EE
:1020B0004FF67F752A404D894FF6FF7606EA0515E3
:1020C0002A434FF6BF752A408D8806EA05152A4334
:1020D0004FF6FF352B404FF2FF752B408D8906EAF6
:1020E00085052B43CD8906EA85052B438380048330
:1020F000CD880587028470BD70B5002400220023BE
:10210000058C4FF6FF6635400584028C8388848BEE
:102110004FF68F752C404FF6FC752C400D882C43E4
:102120004FF6FF552A400D894FF6FF7606EA052542
:102130002A434D8806EA05252A431F4DA84202D0AE
:10214000234DA8421DD14FF2FF752A404D894FF60D
:10215000FF7606EA05252A434FF6FF352A408D888B
:1021600006EA05252A434EF6FF752B404DF6FF750E
:102170002B408D8906EA05152B43CD8906EA051506
:102180002B4383808483CD888587028470BD70B59E
:10219000002200230024058C4EF6FF76354005848E
:1021A000038C8488828B48F6FF752A404FF6FF45E2
:1021B0002A400D8820E00000002C0140000400406F
:1021C00000080040000C00400010004000140040D7
:1021D00000340140004C01400050014000540140D7
:1021E00000180040001C004000200040004001405A
:1021F00000440140004801404FF6FF7606EA0525FD
:102200002A434DF6FF752B400D8906EA05352B4311
:102210004D8806EA05352B43FA4DA84202D0FA4D07
:10222000A84208D14BF6FF752C408D894FF6FF76FA
:1022300006EA85152C4384808283CD88A0F840501F
:10224000038470BD828B4FF2FF331A408283828BEE
:102250004FF6FF7303EA01231A4382837047F0B5F8
:102260000C461546002200210026078C4EF6FF7C06
:1022700007EA0C070784828B018C4FF6FF7707EA89
:10228000043640F6FF473A404FF6FF7707EA052746
:102290003A434FF6FF7707EA03373A43D94FB8423C
:1022A0000ED0D94FB8420BD0B0F1804F08D0D74FE5
:1022B000B84205D0D64FB84202D0D64FB84206D168
:1022C0004DF6FF77394046F48057394305E047F62D
:1022D000FF57394044F48057394382830184F0BD6D
:1022E000828B4FF6F3731A408283828B0A43828378
:1022F0007047F0B50C461546002200210026078CD9
:102300004FF6FF6C07EA0C070784828B018C4FF6AF
:10231000FF7707EA04264FF60C773A404FF6FF772F
:1023200007EA03172F433A43B64FB8420ED0B64FD1
:10233000B8420BD0B0F1804F08D0B44FB84205D0AE
:10234000B34FB84202D0B34FB84206D14FF6FF5751
:10235000394046F48077394305E04FF2FF57394062
:1023600044F48077394382830184F0BD028B4FF2BD
:10237000FF331A400283028B4FF6FF7303EA0123F7
:102380001A4302837047F0B50C461546002200211F
:102390000026078C4FF6EF7C07EA0C070784028BB8
:1023A000018C4FF6FF7707EA041640F6FF473A40E4
:1023B0004FF6FF7707EA03373A434FF6FF7707EA0E
:1023C00005273A438F4FB8420ED08F4FB8420BD0FB
:1023D000B0F1804F08D08D4FB84205D08C4FB84235
:1023E00002D08C4FB84206D14FF6DF77394046F025
:1023F0001007394305E04FF65F77394044F0100786
:10240000394302830184F0BD028B4FF6F3731A4007
:102410000283028B0A4302837047F0B50C461546CF
:1024200000220021068C4FF6FE773E400684028B88
:10243000018C4FF60C7632407E1C06EA03162E43C2
:102440003243704EB0420ED06F4EB0420BD0B0F15E
:10245000804F08D06D4EB04205D06D4EB04202D0D4
:102460006C4EB04206D14FF6FD76314044F0010685
:10247000314305E04FF6F576314044F00106314333
:1024800002830184F0BD70B505460C465D48854267
:102490000ED05D4885420BD0B5F1804F08D05B4827
:1024A000854205D05A48854202D05A48854200D11B
:1024B00000E000BF208850B92389A288618828469F
:1024C000FFF7ABFFE1882846FFF79EFF25E0208855
:1024D00004280AD12389A28861882846FFF753FF80
:1024E000E1882846FFF742FF17E0208808280AD134
:1024F0002389A28861882846FFF7FBFEE1882846E9
:10250000FFF7EEFE09E02389A28861882846FFF7DD
:10251000A6FEE1882846FFF795FE70BD2DE9F04143
:1025200005460C4600260127608808B9022600E00F
:102530000026A088012801D1022700E00127208879
:10254000A0B92389A28861882846FFF766FFE18841
:102550002846FFF759FF23893A4631462846FFF7B8
:1025600012FFE1882846FFF701FF13E02389A288C4
:1025700061882846FFF707FFE1882846FFF7F6FE47
:1025800023893A4631462846FFF747FFE188284627
:10259000FFF73AFFBDE8F0810A884B881A438B8821
:1025A0001A43CB881A430B891A434B891A438B89E8
:1025B0001A43A0F8442070474FF6FF718180002134
:1025C0000180C180418001727047002101804180FB
:1025D0008180C180018141818181C1817047002159
:1025E00001804180012181800021C18001817047EB
:1025F0000021018041808180C180018141818181F0
:1026000070470000002C01400034014000040040ED
:1026100000080040000C004021B1028842F0010295
:10262000028004E002884FF6FE731A400280704771
:1026300031B1B0F8442042F40042A0F8442005E053
:10264000B0F84420C2F30E02A0F8442070471AB13B
:1026500083890B43838102E083898B4383817047A5
:102660008182704741EA0203A0F8483070471AB1EE
:1026700083890B43838102E083898B438381704785
:1026800001894FF6F8721140018170470A46002116
:1026900001894FF68F73194011430181704730B59E
:1026A00004460D4629462046FFF7F0FF208940F0FA
:1026B0000700208130BD2DE9F04104460D46164645
:1026C0001F46602D06D13B46012231462046FFF7CA
:1026D0005AFE05E03B46012231462046FFF79DFEAB
:1026E00029462046FFF7D2FF208940F007002081CD
:1026F000BDE8F08130B50C4600210189C9B24FF622
:10270000FF7505EA0325154325432943018130BDA3
:102710002DE9F04105460E461746984600244346EB
:102720003A4631462846FFF7E5FF2C894FF6F87008
:10273000044044F007044FF68F70044044F07004E6
:102740002C81BDE8F081F0B504460D4616461F46C3
:102750003B46324629462046FFF7CCFF208940F40D
:1027600080402081F0BD0185828270470A460021A9
:1027700001884FF68F731940114301807047F0B5FF
:102780000C4615461E460021002200230189028BBB
:10279000038C4FF6F877394021434FF6FC473A4017
:1027A00040F201173A434FF6DD773B404FF6FF7793
:1027B00007EA06172F433B43018102830384F0BDE0
:1027C0000A460021018B4FF68F7319401143018394
:1027D00070470A460021018B48F6FF7319404FF6F7
:1027E000FF7303EA02231943018370470A4600215D
:1027F000818B4FF68F7319401143818370470A46CE
:102800000021818B48F6FF7319404FF6FF7303EAEE
:10281000022319438183704721B1028842F080026C
:10282000028004E002884FF67F731A4002807047EE
:1028300021B1828842F00402828004E082884FF64F
:10284000FB731A408280704721B1828842F00802EF
:10285000828004E082884FF6F7731A4082807047C6
:1028600021B1828842F00102828004E082884FF622
:10287000FE731A40828070470A460021018B4FF692
:10288000F77319401143018370470A460021018BF9
:102890004FF2FF7319404FF6FF7303EA0223194307
:1028A000018370470A460021818B4FF6F773194068
:1028B0001143818370470A460021818B4FF2FF73D9
:1028C00019404FF6FF7303EA0223194381837047CF
:1028D0000A460021018B4FF6FB7319401143018317
:1028E00070470A460021018B4FF6FF3319404FF61F
:1028F000FF7303EA02231943018370470A4600214C
:10290000818B4FF6FB7319401143818370470A4650
:102910000021818B4FF6FF3319404FF6FF7303EA16
:1029200002231943818370470A460021018B4FF629
:102930007F7319401143018370470A460021018BC0
:10294000C1F30E014FF6FF7303EA0223194301831B
:1029500070470A460021818B4FF67F73194011435F
:10296000818370470A460021818BC1F30E014FF627
:10297000FF7303EA02231943818370470A4600214B
:10298000018C4FF6FD7319401143018470470A46CC
:102990000021018C4FF6F7731940114301847047F1
:1029A0000A460021018C4FF6DF7319404FF6FF7382
:1029B00003EA02131943018470470A460021018C7F
:1029C0004FF67F7319404FF6FF7303EA0213194362
:1029D000018470470A460021018C4FF6FF531940CD
:1029E0004FF6FF7303EA02231943018470470A4636
:1029F0000021018C4FF2FF7319404FF6FF7303EA79
:102A000002231943018470470A460021018C4DF6C8
:102A1000FF7319404FF6FF7303EA02331943018431
:102A2000704730B5002301248C40A3B2048C9C4332
:102A30000484048C02FA01F5ADB22C43048430BD49
:102A400030B5002304248C40A3B2048C9C4304843E
:102A5000048C02FA01F5ADB22C43048430BD70B58C
:102A60000346002000241846183001258D40ACB2E2
:102A70001D8CA5431D8409B1082909D100EB610013
:102A8000056825F0700505600568154305600EE0D2
:102A90000D1FC5F34E052844056825F4E045056083
:102AA00005684FF6FF7606EA02263543056070BDDD
:102AB00021B1028842F00202028004E002884FF64F
:102AC000FD731A400280704721B1028842F004026F
:102AD000028004E002884FF6FB731A4002807047C0
:102AE00021B1828842F08002828004E082884FF621
:102AF0007F731A408280704702884FF6F7731A403E
:102B0000028002880A430280704782884FF68F73E2
:102B10001A40828082880A438280704702894FF679
:102B2000F8731A40028102890A43028170470289C0
:102B30004FF67F731A40028102890A43028170476F
:102B4000818470478185704781867047018770470F
:102B500081877047A0F84010704702884FF6FF4306
:102B60001A40028002880A43028070470146888E1C
:102B700070470146088F70470146888F70470146AD
:102B8000B1F8400070470146888C70470146088DB7
:102B9000704702460020138A0B400BB1012000E071
:102BA00000207047CA430282704730B502460020B9
:102BB00000230024158A05EA0103958905EA01042A
:102BC00013B10CB1012000E0002030BDCA430282E5
:102BD0007047000010B50446FB48844209D101212A
:102BE0008803FEF775FE00214FF48040FEF770FE6B
:102BF00032E0F648844209D101214804FEF775FE0F
:102C000000214FF40030FEF770FE25E0F0488442CA
:102C100009D101218804FEF768FE00214FF48020CD
:102C2000FEF763FE18E0EB48844209D10121C80495
:102C3000FEF75BFE00214FF40020FEF756FE0BE08E
:102C4000E548844208D101210805FEF74EFE002127
:102C50004FF48010FEF749FE10BD2DE9F04786B015
:102C600005460E460024A24600BFA1460027B089B3
:102C700000B100BF2F462C8A4CF6FF700440F0884C
:102C800004432C82AC894EF6F3100440B08831899D
:102C90000843718908430443AC81AC8A4FF6FF4076
:102CA0000440B0890443AC8201A8FEF78AFDC648FF
:102CB000874202D1DDF810A001E0DDF80CA0A88960
:102CC00000F4004040B10AEBCA0000EB0A10316882
:102CD0004900B0FBF1F807E00AEBCA0000EB0A106C
:102CE00031688900B0FBF1F86420B8FBF0F0040112
:102CF0002009642101FB1089A88900F4004040B13B
:102D0000322000EBC900B0FBF1F000F007000443F3
:102D100008E0322000EB09106421B0FBF1F000F074
:102D20000F0004432C8106B0BDE8F0874FF4165124
:102D3000016000218180C18001810C21418100213D
:102D40008181704710B502460020108A4FF2FF03C0
:102D500018400B884C8823438C882343CC8823431A
:102D60001843108210BD0021018041808180C18004
:102D7000704721B1828942F40052828104E0828945
:102D80004DF6FF731A4082817047F0B50346002468
:102D900000260025002040F66A17B94200D100BF86
:102DA0001846C1F3421401F01F06012707FA06F581
:102DB000012C01D10C3004E0022C01D1103000E0D4
:102DC00014301AB107682F43076002E00768AF4369
:102DD0000760F0BD1AB1838A0B43838202E0838AC5
:102DE0008B4383827047028A4FF6F0731A40028247
:102DF000028A0A430282704782894FF2FF731A40A7
:102E0000828182890A438281704721B1828942F09E
:102E10000202828104E082894FF6FD731A408281AA
:102E20007047028A4FF6DF731A400282028A0A4311
:102E30000282704721B1028A42F48042028204E099
:102E4000028A4BF6FF731A4002827047C1F30802F0
:102E50008280704701468888C0F3080070478189E6
:102E600041F0010181817047028BD2B20283028B53
:102E700042EA012202837047028B02F47F420283FE
:102E8000028B0A430283704721B1828A42F02002FA
:102E9000828204E0828A4FF6DF731A408282704792
:102EA00021B1828A42F01002828204E0828A4FF6C7
:102EB000EF731A408282704721B1828A42F0080281
:102EC000828204E0828A4FF6F7731A40828270474A
:102ED00021B1828942F40042828103E08289C2F3F7
:102EE0000E028281704721B1828A42F4006282829E
:102EF00004E0828A4FF2FF731A4082827047828A0E
:102F00004FF6FB731A408282828A0A43828270479C
:102F100021B1828A42F00202828204E0828A4FF664
:102F2000FD731A408282704702460020B1F5007F8F
:102F300000D100BF13880B400BB1012000E000203E
:102F4000704701F40072B2F5007F00D100BFCA43A0
:102F50000280704770B5024600240023002500203F
:102F600040F66A16B14200D100BFC1F3421501F02C
:102F70001F03012606FA03F3012D02D1968933407F
:102F800006E0022D02D1168A334001E0968A3340D2
:102F90000C12012606FA04F41688344013B10CB161
:102FA000012000E0002070BD10B50022002340F693
:102FB0006A14A14200D100BF0A1201249440A3B2B6
:102FC000DC43048010BD0000003801400044004094
:102FD00000480040004C0040005000401CB500205C
:102FE0004149086001204149087000F0FCFE40485A
:102FF00001F0B1F9002146F64D3001F0B2F93D483B
:1030000003883D4802880021084600F047FF04F08D
:1030100023FF02F069FF00F0F5FB02F035FF01F03D
:1030200087FD02F077F803F035F903F02FFA03F08B
:10303000ABFC00F095F9314800F0E7F903F0FBF83C
:1030400003F0FDFA03F07CFC00214FF4784001F01E
:1030500088F903F06BFB15E001F080F9C48801F0FA
:103060007DF9C58801F07AF9C08800EB400086B28E
:10307000002023A123462A46CDE900103146102026
:1030800001F0CBFB03F052FB0028E5D1214803F00F
:10309000F8FB28E003F020FA012804D11E4800784C
:1030A00008B106F035FC02F0A2FE1B4800780628A5
:1030B00018D2DFE800F003070B0E11140F4806F0DA
:1030C00030FC0FE00D4805F00CFC0BE006F035F885
:1030D00008E004F002FB05E004F0CAFF02E003F0A0
:1030E00075FD00BF00BFD5E7740000207800002008
:1030F000880000207C0000207A00002028000020AA
:10310000D5D2B2BBB5BD447331386232302E2E2ECB
:10311000000000001B02002079000020704700BF63
:10312000FEE700BFFEE700BFFEE700BFFEE7704717
:103130007047704710B503F0CCF810BD10B50120F2
:10314000FEF79AFC38B10120FEF7A6FC01200A49DF
:103150000860FEF763FC10BD10B501210748FFF7BA
:1031600024FD40B106480068401C05490860012163
:103170000248FFF72BFD10BD440200200010004064
:1031800028020020F0B58DB004463022704901A815
:1031900007F088F96069451E642195FBF1F1284626
:1031A000EA1705EB9272C1EBA2014FF4C87295FBCE
:1031B000F2F28F186069C11700EB91718910A0EBD2
:1031C000810191B96422616991FBF2F302FB131151
:1031D00031B99200616991FBF2F302FB131121B93D
:1031E0002169022901DD012600E0002640F26D1070
:1031F00005FB00712069401E01AA52F82000084416
:10320000E16808440644072096FBF0F100FB1160DA
:10321000A0610DB0F0BD10B501460869801E0861BF
:10322000002805DC08690C3008614869401E4861C7
:103230006423486990FBF3F04A69D31702EB937358
:10324000C0EBA3004FF4C87492FBF4F3034440F2C4
:103250006F14086960430C2490FBF4F01844CB68A9
:10326000034440F26D1402FB04303A4BC01A00EBE9
:1032700040008B6803EBC000C0EB00104B6803EB11
:103280008000C0EB00100B6803EB800010BD2DE93F
:10329000F04107460C463048B7FBF0F6B7FBF0F1BB
:1032A00000FB11784FF4616098FBF0F0A0604FF4E0
:1032B000616098FBF0F100FB11803C2190FBF1F084
:1032C00060604FF4616098FBF0F100FB11803C21DD
:1032D00090FBF1F201FB1200206040F2B27509E0B0
:1032E00005F0030010B94FF4B77001E040F26D1023
:1032F000361A6D1C05F0030010B94FF4B77001E0E9
:1033000040F26D10B042EBDD65616069C11700EB02
:1033100091718910A0EB810111B91D200F494860FE
:10332000012505E0681E0D4951F82000361A6D1C74
:10333000681E0A4951F82000B042F3DD1C204860A5
:103340002561701CE0602046FFF71CFFBDE8F0819E
:103350008CBC00088BFA0A00805101004400002058
:1033600008B54FF4C060FCF7EFFF03208DF80000B4
:1033700001208DF8010000208DF8020001208DF859
:1033800003006846FCF7E5FF08BD10B501214FF0CA
:10339000C050FEF790FA0120FEF7B7F8FDF76AFA81
:1033A0000120FEF701FA00BF6120FEF74CF900286A
:1033B000FAD04FF40070FEF7FAF90120FEF7FDF99C
:1033C000FEF735FBFEF72AFB01210846FEF7CAFA95
:1033D000FEF724FB49F63F40FEF7FAFAFEF71EFB24
:1033E00010BD70B50446FFF7D0FFFEF717FB20466F
:1033F000FFF7C8FE2046FFF70EFFA0F5E14528467F
:10340000FEF7D9FAFEF70AFB70BD10B5044604209A
:10341000FDF765FA4AF2A55188420ED08FA007F059
:10342000A3FF96A007F0A0FF2046FFF7DAFF4AF2BD
:10343000A5510420FDF747FA2AE001214FF0C050C2
:10344000FEF739FA0120FEF760F80120FEF7ACF92B
:1034500000BF6120FEF7F7F80028FAD07B20FEF7C6
:10346000F2F818B18BA007F07FFF06E07A20FEF794
:10347000EAF810B190A007F077FF98A007F074FF6A
:10348000FEF7D5FA01210846FEF76CFAFEF7C6FAF8
:10349000FEF742FA10BD38B5044600200090002522
:1034A00096A007F061FF00BFA24807F05DFF6946E4
:1034B000A1A007F031F840F2B2710098884204D31D
:1034C00040F2F6710098884204D99CA0009907F058
:1034D0004BFF06E0A2A0009907F046FF009860614C
:1034E00000E0E1E700BF00BFA34807F03DFF6946E9
:1034F00091A007F011F8009810B100980C2804D999
:103500008EA0009907F030FF06E09CA0009907F01C
:103510002BFF0098206100E0E6E700BF20690D283E
:1035200032D2DFE800F0310714080F09100A0B113E
:103530000C120D0000BF00BF00BF00BF00BF00BFE6
:103540001F2521E000BF00BF00BF1E251CE06069F1
:10355000C11700EB91718910A0EB810191B9642230
:10356000616991FBF2F302FB131131B992006169B9
:1035700091FBF2F302FB131121B92169022901DD4C
:103580001D2500E01C2500BF00BF00BF2946814863
:1035900007F0EAFE694668A006F0BEFF009810B189
:1035A0000098A84204D965A0009907F0DDFE06E066
:1035B00079A0009907F0D8FE0098E06000E0E5E708
:1035C00000BF00BF7A4807F0CFFE69465AA006F058
:1035D000A3FF0098172804D958A0009907F0C4FE4B
:1035E00006E074A0009907F0BFFE0098A06000E01C
:1035F000E8E700BF00BF754807F0B6FE69464EA079
:1036000006F08AFF00983B2804D94CA0009907F0E7
:10361000ABFE06E06EA0009907F0A6FE0098606081
:1036200000E0E8E700BF00BF6F4807F09DFE694675
:1036300041A006F071FF00983B2804D93FA00099F3
:1036400007F092FE06E069A0009907F08DFE009851
:10365000206000E0E8E700BF38BD00000D0A0D0A59
:1036600020525443206E6F742079657420636F6E0E
:10367000666967757265642E2E2E2E000D0A0D0A7E
:103680002052544320636F6E666967757265642EBD
:103690002E2E2E000D0A0D0A20506F776572204FD6
:1036A0006E205265736574206F6363757272656412
:1036B0002E2E2E2E000000000D0A0D0A20457874D3
:1036C00065726E616C205265736574206F636375FB
:1036D000727265642E2E2E2E000000000D0A204E00
:1036E0006F206E65656420746F20636F6E66696716
:1036F000757265205254432E2E2E2E000D0A3D3D2C
:103700003D3D3D3D3D3D3D3D3D3D3D3D3D3D3D3DE9
:103710003D3D3D3D3D3D3DC9E8D6C3CAB1BCE43D5C
:103720003D3D3D3D3D3D3D3D3D3D3D3D3D3D3D3DC9
:103730003D00000000010108256400000D0A20C4BE
:10374000FACAE4C8EBB5C4CAFDD7D6CAC73A2564DD
:10375000A3ACB2BBB7FBBACFD2AAC7F3000000003C
:103760000A0D2020C4EAB7DDB1BBC9E8D6C3CEAA92
:103770003A2025640A0D0000780001080A0D202077
:10378000D4C2B7DDB1BBC9E8D6C3CEAA3A202564FE
:103790000A0D0000D00101080A0D2020C8D5C6DAA4
:1037A000B1BBC9E8D6C3CEAA3A2025640A0D0000F1
:1037B000BC0001080A0D2020CAB1D6D3B1BBC9E8AC
:1037C000D6C3CEAA3A2025640A0D00008C01010858
:1037D0000A0D2020B7D6D6D3B1BBC9E8D6C3CEAA2E
:1037E0003A2025640A0D0000480101080A0D202036
:1037F000C3EBD6D3B1BBC9E8D6C3CEAA3A20256461
:103800000A0D000000B585B001210420FEF746F83E
:1038100001218803FEF742F84FF40070ADF8100064
:1038200018208DF8130003208DF8120004A92248F7
:10383000FDF712FD4FF48060ADF8100004208DF804
:10384000130004A91C48FDF707FD4FF4E130009078
:103850000020ADF80400ADF80600ADF80800ADF8A2
:103860000C000C20ADF80A0069461448FFF7F5F982
:1038700001211248FFF77DFA05B000BD70B504467E
:103880000D46E1B20D48FFF7E1FA00BF80210B4879
:10389000FFF74AFB0028F9D0204670BD10B504465A
:1038A00000BF20210548FFF73FFB0028F9D003485F
:1038B000FFF7D0FA10BD00000008014000380140B9
:1038C00001B502E00098401E009000980028F9D150
:1038D00008BD08B501216020FDF7E0FF03208DF849
:1038E000020018208DF803004FF48040ADF800006E
:1038F0006946FE48FDF7B0FC4FF40040ADF800000B
:103900006946FA48FDF7A8FC0120ADF800006946B9
:10391000F648FDF7A1FC0220ADF800006946F34827
:10392000FDF79AFC8020ADF800006946F048FDF7ED
:1039300093FC4FF48070ADF800006946EC48FDF749
:103940008BFC4FF40070ADF800006946E848FDF7C5
:1039500083FC4FF48060ADF800006946E448FDF751
:103960007BFC4FF40060ADF800006946E048FDF7CD
:1039700073FC4FF48050ADF800006946DC48FDF759
:103980006BFC4FF40050ADF800006946D848FDF7D5
:1039900063FC4FF48040ADF800006946D448FDF761
:1039A0005BFC4FF40040ADF800006946D048FDF7DD
:1039B00053FC4FF48070ADF800006946CB48FDF72A
:1039C0004BFC4FF40070ADF800006946C748FDF7A6
:1039D00043FC4FF48060ADF800006946C348FDF732
:1039E0003BFC03208DF8020018208DF80300102006
:1039F000ADF800006946BD48FDF72EFC2020ADF86B
:103A000000006946B948FDF727FC8020ADF80000AA
:103A10006946B648FDF720FC4FF40060ADF80000A1
:103A20006946B248FDF718FC10208DF8030003200A
:103A30008DF802000220ADF800006946AC48FDF7A1
:103A40000BFC10208DF8030003208DF802004FF4CA
:103A50008050ADF800006946A448FDF7FDFB08BDA5
:103A600000B597B001210802FDF70BFF012001907E
:103A70000420039080060790002002900490059097
:103A800006900890099008200A9010200B900020C2
:103A90000C900E900F9010904FF4805011900020D9
:103AA00012901390149001A81590169008A8FDF795
:103AB000B9F801210020FDF71DFA17B000BD10B5BF
:103AC000CF2007F047FC002007F048FC812007F0DA
:103AD00045FC302007F042FCED2007F03BFC642061
:103AE00007F03CFC032007F039FC122007F036FCFD
:103AF000812007F033FCE82007F02CFC852007F03C
:103B00002DFC102007F02AFC782007F027FCCB20A2
:103B100007F020FC392007F021FC2C2007F01EFCC8
:103B2000002007F01BFC342007F018FC022007F0EF
:103B300015FCF72007F00EFC202007F00FFCEA2010
:103B400007F008FC002007F009FC002007F006FC45
:103B5000B12007F0FFFB002007F000FC1B2007F05E
:103B6000FDFBB62007F0F6FB0A2007F0F7FBA220CA
:103B700007F0F4FBC02007F0EDFB352007F0EEFB6B
:103B8000C12007F0E7FB112007F0E8FBC52007F094
:103B9000E1FB452007F0E2FB452007F0DFFBC720F3
:103BA00007F0D8FBA22007F0D9FBF22007F0D2FBE8
:103BB000002007F0D3FB262007F0CCFB012007F004
:103BC000CDFBE02007F0C6FB0F2007F0C7FB262047
:103BD00007F0C4FB242007F0C1FB0B2007F0BEFB5D
:103BE0000E2007F0BBFB092007F0B8FB542007F0BC
:103BF000B5FBA82007F0B2FB462007F0AFFB0C2076
:103C000007F0ACFB172007F0A9FB092007F0A6FB83
:103C10000F2007F0A3FB072007F0A0FB002007F010
:103C20009DFBE12007F096FB002007F097FB192091
:103C300007F094FB1B2007F091FB042007F08EFB9C
:103C4000102007F08BFB072007F088FB2A2007F0E5
:103C500085FB472007F082FB392007F07FFB03201C
:103C600007F07CFB062007F079FB062007F076FBC7
:103C7000302007F073FB382007F070FB0F2007F0AF
:103C80006DFB362007F066FBC82007F067FB2A2093
:103C900007F060FB002007F061FB002007F05EFBEF
:103CA000002007F05BFBEF2007F058FB2B2007F00C
:103CB00051FB002007F052FB002007F04FFB0120D2
:103CC00007F04CFB3F2007F049FB3A2007F042FB8E
:103CD000552007F043FB112007F03CFB0548FFF798
:103CE000EFFD292007F036FB10BD00000014014055
:103CF00000180140FCBF020010B50446072C00DD8F
:103D000010BDFE480470204604EBD0714910A4EBAE
:103D1000410139B9F020FA4908804FF4A070F949FF
:103D2000088006E04FF4A070F5490880F020F549BE
:103D30000880362007F00EFB082141EA441007F006
:103D40000DFB2A2007F006FB002007F007FB0020F0
:103D500007F004FBEA490988491EC1F3072007F070
:103D6000FDFAE7490978491EC8B207F0F7FA2B2097
:103D700007F0F0FA002007F0F1FA002007F0EEFA61
:103D8000E0490988491EC1F3072007F0E7FADD4939
:103D90000978491EC8B207F0E1FA2C2007F0DAFAD8
:103DA00000BFADE710B50221D748FDF704FB40F690
:103DB000FF20FFF785FD0221D348FDF7FAFA40F610
:103DC000FF20FFF77DFD10BD10B504462CB14FF468
:103DD0008051CE48FDF7EFFA04E04FF48051CB4814
:103DE000FDF7E7FA10BD10B5FFF773FDFFF738FEDA
:103DF0000120FFF7E9FFFFF7D5FFFFF760FEBF489F
:103E00000078FFF779FF10BD2DE9F04104460D461B
:103E100016461F462A2007F09DFA201207F09EFA48
:103E2000E0B207F09BFAA119491EC1F30F2007F079
:103E300095FAA119491EC8B207F090FA2B2007F095
:103E400089FA281207F08AFAE8B207F087FAE91926
:103E5000491EC1F30F2007F081FAE919491EC8B2C3
:103E600007F07CFABDE8F08170B504460D460123E9
:103E70001A4629462046FFF7C7FF70BD70B50446B5
:103E80000D4600262C2007F065FA00BF03E0284607
:103E900007F064FA761CA642F9D370BD2DE9F04113
:103EA00006460F4614461D462B46224639463046E6
:103EB000FFF7AAFF04FB05F095490988FFF7DEFF2D
:103EC000BDE8F08170B505460C468D4800888542F6
:103ED0000CDA8C480088844208DA21462846FFF72D
:103EE000C3FF8C4801880120FFF7C8FF70BD70B583
:103EF0000024002500262E2007F02CFA07F024FAD3
:103F0000044607F021FA044607F01EFA064607F0B9
:103F10001BFA0546E012C002A91240EA411040EA2D
:103F2000E62070BD70B504460D4629462046FFF7D1
:103F30009BFFFFF7DCFF0646304670BD2DE9FF4FC3
:103F400083B081464FF0000AD3460598A0EB0905DF
:103F500004990698461ACDF8049004980090002D14
:103F600001DD012705E00DB9002702E04FF0FF3722
:103F70006D42002E02DD4FF0010806E016B94FF049
:103F8000000802E04FF0FF387642B54201DD2C46D2
:103F900000E034460020029019E0DDE90010FFF750
:103FA00091FFAA44B344A24505DDAAEB040A019897
:103FB000384480B20190A34505DDABEB040B0098BB
:103FC000404480B200900298401C80B20290611C74
:103FD00002988842E1DD07B0BDE8F08F2DE9F0419D
:103FE00004460D4616461F46DDF81880B8F1000F4E
:103FF0000CD03B46324629462046FFF705FF06FB1C
:1040000007F044490988FFF739FF27E0A019401E4F
:1040100082B22B4629462046FFF790FFE819401E42
:1040200083B2A019401E82B2E819401E81B2204618
:10403000FFF784FFE819401E83B222462946204636
:10404000FFF77CFFE919491E8BB2A119491E8AB2FC
:10405000A119491E88B22946FFF770FFBDE8F0811B
:104060002DE9F05F05460E4691469B4600240FFA67
:1040700089F70320A0EB49000FFA80FA97E0BBF123
:10408000000F50D0A0464BE006EB080291B22A196F
:1040900090B2FFF717FF06EB080291B22A1B90B20D
:1040A000FFF710FF321991B2A5EB080290B2FFF7AB
:1040B00009FF321B91B2A5EB080290B2FFF702FF95
:1040C000A6EB080291B22A1B90B2FFF7FBFEA6EB0B
:1040D000080291B22A1990B2FFF7F4FE321B91B296
:1040E00005EB080290B2FFF7EDFE321991B205EB35
:1040F000080290B2FFF7E6FE0EE000007E0000200E
:104100007A0000207C0000200018014000140140CB
:10411000860000208400002008F101000FFA80F8DA
:10412000B845B1DD2FE0F21991B22A1990B2FFF72C
:10413000C9FEF21991B22A1B90B2FFF7C3FE3219E1
:1041400091B2EA1B90B2FFF7BDFE321B91B2EA1B9F
:1041500090B2FFF7B7FEF21B91B22A1B90B2FFF7A5
:10416000B1FEF21B91B22A1990B2FFF7ABFE321BDF
:1041700091B2EA1990B2FFF7A5FE321991B2EA198D
:1041800090B2FFF79FFE601C04B2BAF1000F05DA8F
:10419000A000801D50440FFA80FA07E0E01B800069
:1041A0000A3050440FFA80FA781E07B200BFBC42B2
:1041B0007FF765AFBDE8F09F2DE9F05F8046894647
:1041C0001646A6F120001FFA80FAFD490968898881
:1041D000FB4A1268D28801FB02F0C11700EB517153
:1041E000C1F3C707F648006800680AFB070BF448EC
:1041F0000068C388F2480068828849464046FFF755
:1042000003FE2C2007F0A6F8002416E0002510E09D
:104210001BF8040080212941084020B1E9480088AA
:1042200007F09CF803E0E848008807F097F8681C5E
:10423000C5B2082DECDB601CC4B2BC42E6DBBDE8B5
:10424000F09F70B504460D46002624E03046DC4958
:10425000096889880844DD490988884205DD002607
:10426000D7480068C088204484B22046D4490968F1
:10427000C9880844D6490988884201DD00260024FF
:104280002A7821463046FFF797FF6D1CCC4800681E
:104290008088304486B228780028D7D170BD70B5A8
:1042A00005460E46144624E02846C5490968898813
:1042B0000844C6490988884205DD0025C0480068D1
:1042C000C088304486B23046BD490968C988084470
:1042D000BF490988884201DD002500262278314641
:1042E0002846FFF769FF641CB548006880882844A9
:1042F00085B220780028D7D170BD70B505460E462E
:10430000144624E03046AE490968C9880844B049DB
:104310000988884205DD0026A9480068808828446D
:1043200085B22846A649096889880844A7490988AA
:10433000884201DD00250026227831462846FFF715
:104340003BFF641C9E480068C088304486B22078D9
:104350000028D7D170BD9A49086070479848006816
:104360007047984A1080984A11807047954A128881
:104370000280954A12880A807047924908807047E7
:1043800091490880704770B50446FFF7E7FFC5887C
:104390002B468E48028821460020FFF77FFD70BD26
:1043A0002DE9F04389B080468946174610231A4606
:1043B00049464046FFF728FD2C2006F0CBFF394642
:1043C00001A800F08BFB002422E001A810F8146083
:1043D0004FF6FF7000EA0626012000EB440001A919
:1043E000085C064300250FE04FF4004028413040B0
:1043F00020B17448008806F0B1FF03E072480088DD
:1044000006F0ACFF681CC5B2102DEDDB601CC4B219
:10441000102CDADB09B0BDE8F0832DE9F041054648
:104420000F4614461FE02846103068490988884224
:1044300003DD002507F1100087B2384610306449CB
:104440000988884201DD002500272688300200EB1C
:10445000262086B2324639462846FFF7A1FF05F1ED
:10446000100085B2A41C20780028DCD1BDE8F081C2
:104470002DE9F04105460C46002648E020787E28CC
:1044800025DC30464E490968898808444F49098827
:10449000884205DD00264A480068C088284485B265
:1044A000284647490968C988084449490988884213
:1044B00001DD00260025227829463046FFF77CFEE4
:1044C0003F4800688088304486B2641C1FE0304654
:1044D00010303E490988884203DD002605F11000AE
:1044E00085B2284610303A490988884201DD002605
:1044F00000252788380200EB272087B23A46294654
:104500003046FFF74DFF06F1100086B2A41C20785C
:104510000028B3D1BDE8F0812DE9F04105460E46F3
:10452000144648E020787E2825DC2846244909687E
:104530008988084425490988884205DD00252048E6
:104540000068C088304486B230461D490968C98871
:1045500008441F490988884201DD00250026227889
:1045600031462846FFF728FE154800688088284411
:1045700085B2641C1FE0284610301449098888421F
:1045800003DD002506F1100086B2304610301049D8
:104590000988884201DD002500262788380200EBC3
:1045A000272087B23A4631462846FFF7F9FE05F143
:1045B000100085B2A41C20780028B3D1BDE8F0819A
:1045C0008000002084000020860000207A00002067
:1045D0007C0000202DE9F04106460D4614462CE0F3
:1045E00028461030FE490988884203DD002506F17F
:1045F000100086B230461030FA490988884201DD41
:104600000026002520787E2809DC227829463046BD
:10461000FFF7D2FD641C05F1100085B20DE027887C
:10462000380200EB272087B23A4629463046FFF78A
:10463000B7FE05F1100085B2A41C20780028CFD168
:10464000BDE8F0812DE9FC4F0C461E464FEA004ABA
:104650009AFBF2FA0AF1010ACDF804A04FEA044AE3
:104660009AFBF6FA0AF1010ACDF800A04FF0000912
:10467000202801DBBDE8FC8F00FB04FABAF1000F33
:1046800000D1F7E700FB04FABAF5806F00DBF1E731
:1046900002FB06FABAF1000F00D1EBE702FB06FAC3
:1046A000BAF5804F00DBE5E7CF4BDDF834A0BAF177
:1046B000000F2BD100211FE0002517E0DDF82CA012
:1046C0001AF801A04FF0800B4BFA05FB0AEA0B0A1F
:1046D000BAF1000F02D04FF0010A01E04FF0000ADA
:1046E00003F801AB05F1010A1FFA8AF5082DE5DB95
:1046F00001F1010A1FFA8AF104FB00FA4FEAEA7B92
:104700000AEB5B7BB1EBEB0FD6DB2AE000211FE06D
:10471000002517E0DDF82CA01AF801A04FF0800B5F
:104720004BFA05FB0AEA0B0ABAF1000F02D04FF070
:10473000010A01E04FF0000A03F801AB05F1010A9C
:104740001FFA8AF5082DE5DB01F1010A1FFA8AF14B
:1047500004FB00FA4FEAEA7B0AEB5B7BB1EBEB0F61
:10476000D6DBA14BA14F4FF0000C1AE04FF0000A2E
:104770004FEA194B00FB0B3ED0460AE00EEB1A4BFA
:104780009BF800B007F808B0DDF804B0DA4408F18F
:1047900001089045F2D3DDF800B0D94417440CF17C
:1047A000010CB445E2D3DFF844A2CDF830A0DDF827
:1047B00030A00AF1010ACDF830A000BF5AE72DE978
:1047C000F05F81468A4614461D46DDE90A6B0027E4
:1047D000B8462B46224651464846FFF715FB2C208B
:1047E00006F0B8FD00BF14E04FF000080EE016F828
:1047F000011B594504D17E48008806F0AFFD03E057
:104800007C48008806F0AAFD08F10108A045EED317
:104810007F1CAF42E8D3BDE8F09F2DE9F04F8FB089
:104820000646884614469946DDE9185B274669E046
:10483000304638446B490988884204DD002608EB7D
:1048400009001FFA80F840464844654909888842B3
:1048500001DD0026B0462878802825DD2746B5F8FA
:1048600000A04FEA0A2000EB2A201FFA80FA5146E6
:1048700005A800F033F9012105AA0E984B46CDE9B1
:10488000002002913A4610210846FFF7DBFE574808
:104890004B463A464146CDE9000B3046FFF78FFFC5
:1048A000F01986B2AD1C2DE0204604EBD071C1F3A7
:1048B0004F0728782038C0B20D9000234E48C28898
:1048C000DDE90D0150434C4A92885043C2170490D1
:1048D00000EB5270484A126802EBE0008DE80B00D2
:1048E0004B463A4618211020FFF7ACFE3F484B4696
:1048F0003A464146CDE9000B3046FFF760FFF0191C
:1049000086B26D1C2878002892D10FB0BDE8F08FD8
:104910002DE9F04F8FB080460E4614461F46DDE964
:10492000185A0E947AE0304620442E49098888426D
:1049300004DD002608EB04001FFA80F840463844E6
:1049400027490988884201DD0026B046287880285A
:1049500025DD0E94B5F800904FEA092000EB2920E0
:104960001FFA80F9494604A800F0B8F8012104AA0A
:104970000D983B46CDE900200291102108460E9A81
:10498000FFF760FE19483B46CDE9000A3146404634
:104990000E9AFFF714FFF01986B2AD1C3EE02046D8
:1049A00004EBD071C1F34F010E9128782038C0B2CA
:1049B0000C9000231048C288DDE90C0150430E4AD8
:1049C000928800FB02FB4FEAEB700BEB50700A4A37
:1049D000126802EBE0008DE80B003B4618210DE069
:1049E0007C0000207A00002068420020680200203D
:1049F00086000020840000209000002010200E9AE5
:104A0000FFF720FE2F483B46CDE9000A31464046DD
:104A10000E9AFFF7D4FEF01986B26D1C2878002894
:104A200081D10FB0BDE8F08F2DE9F05F81468A4655
:104A300017469846DDF828B0002400250026434696
:104A40003A4651464846FFF7DFF92C2006F082FC33
:104A500000BF1EE0002519E0002614E0202000FB26
:104A60000B40194901EB0010405D802131410840A5
:104A700020B11648008806F071FC03E01448008855
:104A800006F06CFC761C082EE8D36D1C102DE3D3C9
:104A9000641C07FB08F0C11700EB5161B4EBE11F88
:104AA000D8D3BDE8F09F0B48006820B94FF6FF70DF
:104AB0000849086002E00020064908600120064914
:104AC00008707047680200201CF80008840000206D
:104AD0008600002074000020780000202DE9F041BD
:104AE00080460C461048007820B900F055F80120A7
:104AF0000D4908702512E6B2A5F1A101C1EB011222
:104B000002EB411106EB4101A1390802C11700EB8C
:104B10005171CF10054839182022404600F0EAF9BB
:104B20000020BDE8F0810000A00000200030180047
:104B300008B501211420FCF7B1FE0120ADF80000FA
:104B400004208DF8030069461148FCF785FB4FF4FB
:104B50000050ADF8000004208DF8030069460D48B0
:104B6000FCF77AFB08BD70B504460D462946204681
:104B7000FCF705FC012808D100BF29462046FCF7B8
:104B8000FEFB0128F9D0012070BD0020FCE70000E9
:104B9000000801400010014000B587B00121080362
:104BA000FCF77CFE0121D420FCF778FE0120ADF853
:104BB000040003208DF8060010208DF8070001A9DD
:104BC000FE48FCF749FB2020ADF8040018208DF8C2
:104BD000070001A9FA48FCF73FFB4020ADF80400AC
:104BE00001A9F748FCF738FB8020ADF8040001A9C3
:104BF000F348FCF731FB0121F048FCF7DAFB002019
:104C0000ADF808004FF48270ADF80A000020ADF84E
:104C10000C000220ADF80E000120ADF8100040029B
:104C2000ADF812000820ADF814000020ADF8160011
:104C30000720ADF8180002A9E248FCF75DFF01214A
:104C4000E048FCF7FEFF07B000BD10B50446214662
:104C5000DDA006F089FB002010BD10B504464FF41E
:104C60008050E54908600AE0E3490868411EE24ACD
:104C7000116020B90020FFF7E8FFC0B210BD02218B
:104C8000D048FDF762F80028EED02146CD48FDF768
:104C900009F84FF48050D84908600AE0D6490868FE
:104CA000411ED54A116020B90120FFF7CEFFC0B2E6
:104CB000E4E70121C348FDF748F80028EED0C148D9
:104CC000FCF7F2FFC0B2D9E710B500240121BB48C0
:104CD000FCF771FB0520FFF7C0FF00BFFF20FFF7C7
:104CE000BCFF044604F001000028F7D10121B348BD
:104CF000FCF75FFB10BD10B50121B048FCF75BFB72
:104D00000620FFF7AAFF0121AC48FCF752FB10BDBB
:104D100010B50446FFF7EFFFFFF7D6FF0121A748C4
:104D2000FCF749FB2020FFF798FFC4F30740FFF78B
:104D300094FFC4F30720FFF790FFE0B2FFF78DFF69
:104D400001219E48FCF735FBFFF7BEFF10BD10B5F3
:104D5000FFF7D1FF01219948FCF72DFBC720FFF792
:104D60007CFF01219548FCF724FBFFF7ADFF10BD48
:104D700070B505460C461646FFF7BDFF01218F486A
:104D8000FCF719FB0220FFF768FFC4F30740FFF7A9
:104D900064FFC4F30720FFF760FFE0B2FFF75DFF99
:104DA000B6F5807F04DD4FF4807694A006F0DCFA3F
:104DB00003E02878FFF751FF6D1C301EA6F10101BA
:104DC0008EB2F6D101217D48FCF7F3FAFFF77CFFA4
:104DD00070BD2DE9F05F07460E4614464FF00008FF
:104DE000C146C2460025AB4606F0FF0ACAF10000E4
:104DF000C5B22046E11704EB1161C1F30728E117A2
:104E000004EB11610912A4EB012101F0FF09BAF1D1
:104E1000000F20D1B8F1000F05D1224631463846A7
:104E2000FFF7A6FF64E009E04FF480723146384690
:104E3000FFF79EFF06F5807607F58077B8F1000052
:104E4000A8F1010101F0FF08EED14A46314638468B
:104E5000FFF78EFF4CE0B8F1000F18D1A94510DD27
:104E6000A9EB050000F0FF0B2A4631463846FFF754
:104E70007FFF2E442F445A4631463846FFF778FFCD
:104E800036E0224631463846FFF772FF30E0601BBD
:104E900084B22046E11704EB1161C1F30728E11742
:104EA00004EB11610912A4EB012101F0FF092A466C
:104EB00031463846FFF75CFF2E442F4409E04FF49B
:104EC000807231463846FFF753FF06F5807607F5C6
:104ED0008077B8F10000A8F1010101F0FF08EED1E0
:104EE000B9F1000F04D04A4631463846FFF740FF7B
:104EF000BDE8F09F70B505460C46164601212F48C7
:104F0000FCF759FA0320FFF7A8FEC4F30740FFF7A8
:104F1000A4FEC4F30720FFF7A0FEE0B2FFF79DFE5A
:104F200004E0FF20FFF799FE28706D1C301EA6F1EB
:104F300001018EB2F5D101212048FCF73AFA70BD8B
:104F40002DE9F041002400250026002701211B48FF
:104F5000FCF731FA9F20FFF780FEFF20FFF77DFE70
:104F60000546FF20FFF779FE0646FF20FFF775FE96
:104F7000074601211148FCF71CFA280440EA0620E4
:104F800040EA07042046BDE8F08110B50024012165
:104F90000A48FCF710FAAB20FFF75FFEFF20FFF78F
:104FA0005CFEFF20FFF759FEFF20FFF756FEFF20B3
:104FB000FFF753FE04460121004839E0001001408C
:104FC00000080140003001403C3C2D464C41534814
:104FD0002D4552524F522D3E3E2053504920B5C8C8
:104FE000B4FDB3ACCAB1216572726F72436F646570
:104FF000203D2025640A0000A40000203C3C2D46F2
:105000004C4153482D4552524F522D3E3E20535055
:10501000495F464C4153485F5061676557726974F8
:105020006520746F6F206C61726765210A00000053
:10503000FCF7BFF9204610BD10B5044601213248E7
:10504000FCF7B9F90320FFF708FEC4F30740FFF7A8
:1050500004FEC4F30720FFF700FEE0B2FFF7FDFDFA
:1050600010BD10B5FF20FFF7F8FD10BD10B50446C8
:105070004FF480502549086009E024490868411E22
:10508000224A116018B90220FFF7DFFD10BD02218E
:105090001F48FCF75AFE0028EFD021461C48FCF7B9
:1050A00001FE4FF480501949086009E0174908686B
:1050B000411E164A116018B90320FFF7C6FDE5E747
:1050C00001211348FCF741FE0028EFD01048FCF7FF
:1050D000EBFDDBE710B501210B48FCF76CF9B920BB
:1050E000FFF7BBFD01210848FCF763F910BD10B5BF
:1050F00001210548FCF75FF9AB20FFF7AEFD012168
:105100000148FCF756F910BD00100140A400002032
:105110000030014008B501216020FCF7BFFB0120F1
:10512000ADF800008DF8020010208DF803006946EC
:10513000FE48FCF791F80420ADF800006946FB48F2
:10514000FCF78AF80820ADF8000001208DF8020075
:1051500048208DF803006946F448FCF77DF84FF4C9
:105160000050ADF8000001208DF8020010208DF8ED
:1051700003006946EE48FCF76FF84FF40051EC4825
:10518000FCF719F91020ADF8000048208DF8030055
:105190006946E648FCF760F808BD01B5002007E065
:1051A0000C2100BF0A1EA1F10103D9B2FAD1401CA3
:1051B00000998842F4D308BD70B505460421DB4848
:1051C000FCF7F9F80121D948FCF7F5F800241FE0B5
:1051D000C4F1070045FA00F000F0010020B10421FD
:1051E000D248FCF7E6F803E00421D048FCF7E3F8E6
:1051F0000520FFF7D2FF0121CC48FCF7DAF80520A3
:10520000FFF7CBFF0121C948FCF7D5F8601CC4B2F9
:10521000082CDDDB70BD70B500250421C348FCF708
:10522000CAF80121C148FCF7C4F8002414E00121A8
:10523000BE48FCF7C0F80821BC48FCF7A0F80646B9
:10524000C4F10B0006FA00F0284385B20121B748EB
:10525000FCF7AFF8601CC4B20C2CE8DB284670BD2C
:1052600010B504462046FFF7A7FFFFF7D4FF10BD97
:105270002DE9F04104460D469020FFF7F1FF06B2FC
:105280000120FFF78AFFD020FFF7EAFF07B2268050
:105290002F80BDE8F0812DE9F0478CB0064600254F
:1052A0002821684605F017F900BF0AA90BA8FFF7E7
:1052B000DFFFBDF92C002DF81500BDF9281005A859
:1052C00020F81510681CC5B210219848FCF757F853
:1052D00008B90A2DE9DB10219448FCF750F810B109
:1052E0000020944908700A2D7BD1BDF90070B846A2
:1052F000BDF91490CA4601240EE03DF91400B842ED
:1053000002DA3DF9147005E03DF91400404501DD75
:105310003DF91480601CC4B20A2CEEDB012412E0BB
:1053200005A830F91400484503DA05A830F91490AF
:1053300007E005A830F91400504502DD05A830F952
:1053400014A0601CC4B20A2CEADBBDF90000BDF950
:1053500002100844BDF904100844BDF906100844C1
:10536000BDF908100844BDF90A100844BDF90C1035
:105370000844BDF90E100844BDF910100844BDF9E9
:1053800012100844C01BA0EB0800C01000B230800F
:10539000BDF91410BDF916000144BDF9180001440F
:1053A000BDF91A000144BDF91C000144BDF91E00FD
:1053B0000144BDF920000144BDF922000144BDF9BA
:1053C00024000144BDF926000844A0EB0900A0EB2D
:1053D0000A00C01000B2708001200CB0BDE8F08758
:1053E000FFE70020F9E72DE9F04105460C46164697
:1053F0000127B4F90010B4F91020891AB4F90A3061
:10540000B4F912209A1A5143B4F90820B4F91030B3
:10541000D31AB4F902C0B4F91220ACEB020203FBB8
:10542000121005F07FFBB0610021B06905F016FC99
:1054300001D10027CAE0B5F90010B5F91020891A8A
:10544000B4F90A30B4F912209A1A5143B5F9082078
:10545000B5F91030D31AB4F902C0B4F91220ACEB8C
:10546000020203FB121005F05DFB3060B4F900107E
:10547000B4F91020891AB5F90820B5F91030D21AFC
:105480005143B5F90020D21AB4F90830B4F910C06C
:10549000A3EB0C0302FB131005F044FB7060B4F99E
:1054A0001010B5F908205143B4F90820B5F91030AF
:1054B00002FB1311B4F902205143B4F900205A43FE
:1054C000B4F91030B5F900C003FB1C23B4F90A206D
:1054D00003FB0212B4F9081001FB0CF1B4F900301F
:1054E000B5F908C003FB1C13B4F9121003FB01202B
:1054F00005F018FBB060B5F90220B5F91210511A89
:10550000B4F90A30B4F912209A1A5143B5F90A30A5
:10551000B5F912209B1AB4F902C0B4F91220ACEB11
:10552000020203FB121005F0FDFA05E0001801402D
:105530000014014068010020F060B4F90010B4F9D3
:105540001020891AB5F90A30B5F912209A1A514378
:10555000B5F90230B5F912209A1AB4F90830B4F945
:1055600010C0A3EB0C0302FB131005F0DBFA306153
:10557000B4F91010B5F90A205143B4F90830B5F95F
:10558000122003FB1211B4F902205143B4F9002098
:10559000B5F912305A43B4F91030B5F902C003FB23
:1055A0001C23B4F90A2003FB0213B4F9081001FB11
:1055B0000CF1B4F900C0B5F90A200CFB1212B4F9D1
:1055C000121002FB013005F0ADFA70613846BDE8FB
:1055D000F08170B504460D4604F10A018AB214390F
:1055E00088B22B462946FEF7A9FC05F10A0083B2D2
:1055F000143881B222462046FEF7A0FC70BD2DE98A
:10560000F04FB9B004464FF00009CA4600201E9082
:105610001D900026FE48FEF79EFE002143F67930DD
:10562000FEF79FFE2046FEF767FBFA4800888010D1
:10563000ADF85400F84800888010ADF85600BDF869
:105640005400ADF85C00F448008800EB4000801086
:1056500001B215A84181EF48008800EB400080109E
:1056600000B2ADF8640015A841894182BDF864001C
:10567000ADF86C00BDF8561015A84183002558E020
:10568000E5480388E348028800210846FEF706FC47
:10569000E2A6FEF763FE8088DE49098891FBF0F8F8
:1056A000304604F023FFA8EB0000470820233A46C9
:1056B000E0A11FA8009605F067FED74909884810A9
:1056C0001FA9FEF7BEFDFEF749FE8088D149098873
:1056D00091FBF0F0471E681C009007EBD77042105A
:1056E0002023D6A11FA805F04FFEFEF737FEC08885
:1056F000C9490988C0EB610087B21FA93846FEF787
:10570000A0FDD048FFF749FD15AA02EBC50252885B
:1057100091B215AA32F8352090B2FFF75AFF00BFB8
:105720000DA901EBC500FFF7B6FD0028F8D0681CF5
:10573000C5B2042DA4DB06AA0DA915A8FFF753FED8
:1057400000210C9805F08AFA00D143E1BDF94E0022
:1057500005F0E8F90390079904F0ECFF8346BDF9E2
:105760004C0005F0DFF90390069904F0E3FF594679
:10577000049004F087FF8046089904F083FF0590A9
:105780000C9905F009F8074605F00CFA1FFA80F9A4
:10579000BDF94E0005F0C6F903900A9904F0CAFF5E
:1057A0000590BDF94C0005F0BDF90390099904F08E
:1057B000C1FF0490059904F065FF83460B9904F03E
:1057C00061FF80460C9904F0E7FF074605F0EAF90F
:1057D0001FFA80FABDF96C00484504DABDF96C0087
:1057E000A9EB000003E0BDF96C00A0EB090080B25A
:1057F0001E90BDF96E00504504DABDF96E00AAEBAB
:10580000000003E0BDF96E00A0EB0A0080B21D901D
:105810001E980F2802DC1D980F2800DDDAE00C9896
:1058200005F0EDF9CDE90201069805F0E8F9074623
:105830000022854B05F095F8CDE90001DDE9022352
:1058400005F001F9CDE9040105F0ECF904EB4401A0
:105850007E4A42F831000C9805F0D1F9CDE90201F9
:10586000079805F0CCF907460022774B05F079F848
:10587000CDE90001DDE9022305F0E5F8CDE90401F9
:1058800005F0D0F904EB4401704A02EBC101486015
:105890000C9805F0B4F9CDE90201089805F0AFF9CC
:1058A00007460022684B05F05CF8CDE90001DDE910
:1058B000022305F0C8F8CDE9040105F0B3F904EBC3
:1058C0004401624A02EBC10188600C9805F097F927
:1058D000CDE90401099805F092F900225A4BCDE96F
:1058E000000105F03EF8CDE90201DDE9042305F0F1
:1058F000AAF8074605F096F904EB4401534A02EB77
:10590000C101C8600C9805F07AF9CDE904010A9844
:1059100005F075F900224C4BCDE9000105F021F8A6
:10592000CDE90201DDE9042305F08DF8074605F015
:1059300079F904EB4401454A02EBC10108610C9876
:1059400005F05DF9CDE902010B9805F058F9002248
:105950003D4BCDE9000105F004F80746DDE90223DF
:1059600005F071F8CDE9040105F05CF904EB4401A0
:10597000364A02EBC101486127480388254802885E
:1059800000210846FEF78AFA4FF4FC60FEF7F5FCAA
:105990002FA6FEF7E3FC80881E49098891FBF0F8EA
:1059A000304604F0A3FDA8EB0000470820233A4648
:1059B00020A11FA8009605F0E7FC174909884810A8
:1059C0001FA9FEF73EFC2748FFF7E7FB012039B08F
:1059D000BDE8F08F104803880E4802880021084671
:1059E000FEF75CFA4FF47840FEF7C7FC1EA6FEF700
:1059F000B5FC80880749098891FBF0F8304604F02F
:105A000075FDA8EB0000470820233A4609A133E0C2
:105A1000880000207A0000207C000020546F75630D
:105A2000682043616C696272617465202E2E2E2E8F
:105A30002E2E0000252A632573000000252A6325E9
:105A400064000000E09304000000F03FA800002084
:105A500043616C6962726174652053756363656448
:105A60000000000040420F0043616C696272617483
:105A700065206661696C00001FA8009605F084FC33
:105A8000F349098848101FA9FEF7DBFBF1A6FEF7D2
:105A900065FC8088F249098891FBF0F8304604F0F3
:105AA00025FDA8EB0000470820233A46AFF27C0111
:105AB0001FA8009605F068FCFEF750FCC088E4497A
:105AC000098800EB610087B21FA93846FEF7B9FBD1
:105AD000E448FFF762FB002079E738B505460C463D
